{
  "_format": "hh-sol-artifact-1",
  "contractName": "FederatedLearningModel11",
  "sourceName": "contracts/FederatedLearningModel.sol",
  "abi": [
    {
      "inputs": [],
      "stateMutability": "nonpayable",
      "type": "constructor"
    },
    {
      "anonymous": false,
      "inputs": [
        {
          "indexed": false,
          "internalType": "bool",
          "name": "isPaused",
          "type": "bool"
        }
      ],
      "name": "ContractPaused",
      "type": "event"
    },
    {
      "anonymous": false,
      "inputs": [
        {
          "indexed": true,
          "internalType": "bytes32",
          "name": "transferId",
          "type": "bytes32"
        },
        {
          "indexed": true,
          "internalType": "address",
          "name": "sourceModel",
          "type": "address"
        },
        {
          "indexed": false,
          "internalType": "uint256",
          "name": "fraudScore",
          "type": "uint256"
        }
      ],
      "name": "DataTransferred",
      "type": "event"
    },
    {
      "anonymous": false,
      "inputs": [
        {
          "indexed": false,
          "internalType": "uint256",
          "name": "minScore",
          "type": "uint256"
        },
        {
          "indexed": false,
          "internalType": "uint256",
          "name": "maxScore",
          "type": "uint256"
        }
      ],
      "name": "FraudScoreRangeUpdated",
      "type": "event"
    },
    {
      "anonymous": false,
      "inputs": [
        {
          "indexed": true,
          "internalType": "address",
          "name": "modelAddress",
          "type": "address"
        },
        {
          "indexed": false,
          "internalType": "string",
          "name": "modelName",
          "type": "string"
        }
      ],
      "name": "ModelAuthorized",
      "type": "event"
    },
    {
      "anonymous": false,
      "inputs": [
        {
          "indexed": true,
          "internalType": "address",
          "name": "modelAddress",
          "type": "address"
        }
      ],
      "name": "ModelDeauthorized",
      "type": "event"
    },
    {
      "anonymous": false,
      "inputs": [
        {
          "indexed": true,
          "internalType": "address",
          "name": "modelAddress",
          "type": "address"
        },
        {
          "indexed": false,
          "internalType": "string",
          "name": "newName",
          "type": "string"
        }
      ],
      "name": "ModelNameUpdated",
      "type": "event"
    },
    {
      "anonymous": false,
      "inputs": [
        {
          "indexed": true,
          "internalType": "address",
          "name": "previousOwner",
          "type": "address"
        },
        {
          "indexed": true,
          "internalType": "address",
          "name": "newOwner",
          "type": "address"
        }
      ],
      "name": "OwnershipTransferred",
      "type": "event"
    },
    {
      "inputs": [
        {
          "internalType": "address",
          "name": "modelAddress",
          "type": "address"
        },
        {
          "internalType": "string",
          "name": "modelName",
          "type": "string"
        }
      ],
      "name": "authorizeModel",
      "outputs": [],
      "stateMutability": "nonpayable",
      "type": "function"
    },
    {
      "inputs": [
        {
          "internalType": "address",
          "name": "",
          "type": "address"
        }
      ],
      "name": "authorizedModels",
      "outputs": [
        {
          "internalType": "bool",
          "name": "",
          "type": "bool"
        }
      ],
      "stateMutability": "view",
      "type": "function"
    },
    {
      "inputs": [
        {
          "internalType": "uint256",
          "name": "_initialFraudScore",
          "type": "uint256"
        },
        {
          "internalType": "bytes32[]",
          "name": "_initialParameters",
          "type": "bytes32[]"
        },
        {
          "internalType": "uint256",
          "name": "_initialVersion",
          "type": "uint256"
        },
        {
          "internalType": "string",
          "name": "_modelName",
          "type": "string"
        },
        {
          "internalType": "string",
          "name": "_description",
          "type": "string"
        }
      ],
      "name": "createModel",
      "outputs": [],
      "stateMutability": "nonpayable",
      "type": "function"
    },
    {
      "inputs": [
        {
          "internalType": "address",
          "name": "modelAddress",
          "type": "address"
        }
      ],
      "name": "deauthorizeModel",
      "outputs": [],
      "stateMutability": "nonpayable",
      "type": "function"
    },
    {
      "inputs": [],
      "name": "getFraudScoreRange",
      "outputs": [
        {
          "internalType": "uint256",
          "name": "min",
          "type": "uint256"
        },
        {
          "internalType": "uint256",
          "name": "max",
          "type": "uint256"
        }
      ],
      "stateMutability": "view",
      "type": "function"
    },
    {
      "inputs": [
        {
          "internalType": "address",
          "name": "modelAddress",
          "type": "address"
        }
      ],
      "name": "getLatestModelData",
      "outputs": [
        {
          "internalType": "uint256",
          "name": "fraudScore",
          "type": "uint256"
        },
        {
          "internalType": "uint256",
          "name": "timestamp",
          "type": "uint256"
        },
        {
          "internalType": "uint256",
          "name": "modelVersion",
          "type": "uint256"
        },
        {
          "internalType": "string",
          "name": "modelName",
          "type": "string"
        }
      ],
      "stateMutability": "view",
      "type": "function"
    },
    {
      "inputs": [
        {
          "internalType": "bytes32",
          "name": "transferId",
          "type": "bytes32"
        }
      ],
      "name": "getModelData",
      "outputs": [
        {
          "internalType": "uint256",
          "name": "fraudScore",
          "type": "uint256"
        },
        {
          "internalType": "bytes32[]",
          "name": "parameters",
          "type": "bytes32[]"
        },
        {
          "internalType": "uint256",
          "name": "timestamp",
          "type": "uint256"
        },
        {
          "internalType": "address",
          "name": "sourceModel",
          "type": "address"
        },
        {
          "internalType": "uint256",
          "name": "modelVersion",
          "type": "uint256"
        },
        {
          "internalType": "string",
          "name": "modelName",
          "type": "string"
        },
        {
          "internalType": "string",
          "name": "description",
          "type": "string"
        }
      ],
      "stateMutability": "view",
      "type": "function"
    },
    {
      "inputs": [
        {
          "internalType": "address",
          "name": "modelAddress",
          "type": "address"
        }
      ],
      "name": "getModelDetails",
      "outputs": [
        {
          "internalType": "bool",
          "name": "isAuthorized",
          "type": "bool"
        },
        {
          "internalType": "string",
          "name": "name",
          "type": "string"
        }
      ],
      "stateMutability": "view",
      "type": "function"
    },
    {
      "inputs": [
        {
          "internalType": "address",
          "name": "modelAddress",
          "type": "address"
        }
      ],
      "name": "getModelName",
      "outputs": [
        {
          "internalType": "string",
          "name": "",
          "type": "string"
        }
      ],
      "stateMutability": "view",
      "type": "function"
    },
    {
      "inputs": [],
      "name": "getOwner",
      "outputs": [
        {
          "internalType": "address",
          "name": "",
          "type": "address"
        }
      ],
      "stateMutability": "view",
      "type": "function"
    },
    {
      "inputs": [],
      "name": "getPauseStatus",
      "outputs": [
        {
          "internalType": "bool",
          "name": "",
          "type": "bool"
        }
      ],
      "stateMutability": "view",
      "type": "function"
    },
    {
      "inputs": [
        {
          "internalType": "address",
          "name": "modelAddress",
          "type": "address"
        }
      ],
      "name": "getTransferHistory",
      "outputs": [
        {
          "internalType": "bytes32[]",
          "name": "",
          "type": "bytes32[]"
        }
      ],
      "stateMutability": "view",
      "type": "function"
    },
    {
      "inputs": [],
      "name": "maxFraudScore",
      "outputs": [
        {
          "internalType": "uint256",
          "name": "",
          "type": "uint256"
        }
      ],
      "stateMutability": "view",
      "type": "function"
    },
    {
      "inputs": [],
      "name": "minFraudScore",
      "outputs": [
        {
          "internalType": "uint256",
          "name": "",
          "type": "uint256"
        }
      ],
      "stateMutability": "view",
      "type": "function"
    },
    {
      "inputs": [],
      "name": "minimumAcceptedFraudScore",
      "outputs": [
        {
          "internalType": "uint256",
          "name": "",
          "type": "uint256"
        }
      ],
      "stateMutability": "view",
      "type": "function"
    },
    {
      "inputs": [
        {
          "internalType": "address",
          "name": "",
          "type": "address"
        }
      ],
      "name": "modelNames",
      "outputs": [
        {
          "internalType": "string",
          "name": "",
          "type": "string"
        }
      ],
      "stateMutability": "view",
      "type": "function"
    },
    {
      "inputs": [
        {
          "internalType": "bytes32",
          "name": "",
          "type": "bytes32"
        }
      ],
      "name": "modelTransfers",
      "outputs": [
        {
          "internalType": "uint256",
          "name": "fraudScore",
          "type": "uint256"
        },
        {
          "internalType": "uint256",
          "name": "timestamp",
          "type": "uint256"
        },
        {
          "internalType": "address",
          "name": "sourceModel",
          "type": "address"
        },
        {
          "internalType": "uint256",
          "name": "modelVersion",
          "type": "uint256"
        },
        {
          "internalType": "string",
          "name": "modelName",
          "type": "string"
        },
        {
          "internalType": "string",
          "name": "description",
          "type": "string"
        }
      ],
      "stateMutability": "view",
      "type": "function"
    },
    {
      "inputs": [],
      "name": "owner",
      "outputs": [
        {
          "internalType": "address",
          "name": "",
          "type": "address"
        }
      ],
      "stateMutability": "view",
      "type": "function"
    },
    {
      "inputs": [],
      "name": "paused",
      "outputs": [
        {
          "internalType": "bool",
          "name": "",
          "type": "bool"
        }
      ],
      "stateMutability": "view",
      "type": "function"
    },
    {
      "inputs": [
        {
          "internalType": "uint256",
          "name": "_min",
          "type": "uint256"
        },
        {
          "internalType": "uint256",
          "name": "_max",
          "type": "uint256"
        }
      ],
      "name": "setFraudScoreRange",
      "outputs": [],
      "stateMutability": "nonpayable",
      "type": "function"
    },
    {
      "inputs": [
        {
          "internalType": "address",
          "name": "modelAddress",
          "type": "address"
        },
        {
          "internalType": "string",
          "name": "name",
          "type": "string"
        }
      ],
      "name": "setModelName",
      "outputs": [],
      "stateMutability": "nonpayable",
      "type": "function"
    },
    {
      "inputs": [
        {
          "internalType": "address",
          "name": "newOwner",
          "type": "address"
        }
      ],
      "name": "setOwner",
      "outputs": [],
      "stateMutability": "nonpayable",
      "type": "function"
    },
    {
      "inputs": [
        {
          "internalType": "bool",
          "name": "_paused",
          "type": "bool"
        }
      ],
      "name": "setPaused",
      "outputs": [],
      "stateMutability": "nonpayable",
      "type": "function"
    },
    {
      "inputs": [
        {
          "internalType": "uint256",
          "name": "_fraudScore",
          "type": "uint256"
        },
        {
          "internalType": "bytes32[]",
          "name": "_parameters",
          "type": "bytes32[]"
        },
        {
          "internalType": "uint256",
          "name": "_modelVersion",
          "type": "uint256"
        },
        {
          "internalType": "string",
          "name": "_modelName",
          "type": "string"
        },
        {
          "internalType": "string",
          "name": "_description",
          "type": "string"
        }
      ],
      "name": "transferModelData",
      "outputs": [
        {
          "internalType": "bytes32",
          "name": "",
          "type": "bytes32"
        }
      ],
      "stateMutability": "nonpayable",
      "type": "function"
    }
  ],
  "bytecode": "0x6080604052604660075534801561001557600080fd5b50600480546001600160a01b0319163317905560006005556064600655611ea0806100416000396000f3fe608060405234801561001057600080fd5b50600436106101585760003560e01c8063893d20e8116100c3578063d4d314791161007c578063d4d314791461030c578063dab2a84714610332578063e47a1de814610345578063eb91797a14610366578063f21aa24a14610389578063fbf474fd1461039c57600080fd5b8063893d20e81461026e5780638da5cb5b146102935780639d1cfbbc146102a65780639f4a662c146102b9578063a0ddb2a2146102d9578063b2a306ad146102ec57600080fd5b80633826436b116101155780633826436b146101eb57806341b026da146101fe57806353560b16146102115780635c975abb1461022c5780635e0fd42a146102405780637cb0bc4d1461026557600080fd5b806301b4b62c1461015d57806313af40351461017957806316c38b3c1461018e5780631b8d02b8146101a15780631d9023cb146101c457806337ac8f4a146101e2575b600080fd5b61016660055481565b6040519081526020015b60405180910390f35b61018c6101873660046117ef565b6103af565b005b61018c61019c366004611811565b610486565b6101b46101af3660046117ef565b610508565b6040516101709493929190611879565b600454600160a01b900460ff165b6040519015158152602001610170565b61016660065481565b61018c6101f93660046118a8565b610662565b61018c61020c366004611913565b610712565b60055460065460408051928352602083019190915201610170565b6004546101d290600160a01b900460ff1681565b61025361024e3660046119f1565b610b01565b60405161017096959493929190611a0a565b61016660075481565b6004546001600160a01b03165b6040516001600160a01b039091168152602001610170565b60045461027b906001600160a01b031681565b6101666102b4366004611913565b610c52565b6102cc6102c73660046117ef565b611023565b6040516101709190611a97565b61018c6102e7366004611aaa565b61108f565b6102ff6102fa3660046117ef565b6111a3565b6040516101709190611afd565b61031f61031a3660046119f1565b61123d565b6040516101709796959493929190611b10565b61018c610340366004611aaa565b6114ac565b6103586103533660046117ef565b611535565b604051610170929190611b7a565b6101d26103743660046117ef565b60016020526000908152604090205460ff1681565b6102ff6103973660046117ef565b6115f6565b61018c6103aa3660046117ef565b611698565b6004546001600160a01b031633146103e25760405162461bcd60e51b81526004016103d990611b9d565b60405180910390fd5b6001600160a01b03811661042a5760405162461bcd60e51b815260206004820152600f60248201526e496e76616c6964206164647265737360881b60448201526064016103d9565b6004546040516001600160a01b038084169216907f8be0079c531659141344cd1fd0a4f28419497f9722a3daafe3b4186f6b6457e090600090a3600480546001600160a01b0319166001600160a01b0392909216919091179055565b6004546001600160a01b031633146104b05760405162461bcd60e51b81526004016103d990611b9d565b60048054821515600160a01b0260ff60a01b199091161790556040517f752d7e161ff5146f80e3820893176eb40532811e5e20400dfdde57455213706a906104fd90831515815260200190565b60405180910390a150565b6001600160a01b03811660009081526003602052604081208054829182916060919061056b5760405162461bcd60e51b8152602060048201526012602482015271139bc81d1c985b9cd9995c9cc8199bdd5b9960721b60448201526064016103d9565b8054600090829061057e90600190611bde565b8154811061058e5761058e611c05565b9060005260206000200154905060008060008381526020019081526020016000209050806000015481600201548260040154836005018080546105d090611c1b565b80601f01602080910402602001604051908101604052809291908181526020018280546105fc90611c1b565b80156106495780601f1061061e57610100808354040283529160200191610649565b820191906000526020600020905b81548152906001019060200180831161062c57829003601f168201915b5050505050905096509650965096505050509193509193565b6004546001600160a01b0316331461068c5760405162461bcd60e51b81526004016103d990611b9d565b8082106106cb5760405162461bcd60e51b815260206004820152600d60248201526c496e76616c69642072616e676560981b60448201526064016103d9565b6005829055600681905560408051838152602081018390527ffd4f9ad7b2b50b44cf8d54f54960161ee014342f57f91074a0e493cf1661ec93910160405180910390a15050565b3360009081526001602052604090205460ff16156107695760405162461bcd60e51b81526020600482015260146024820152734d6f64656c20616c72656164792065786973747360601b60448201526064016103d9565b826107b65760405162461bcd60e51b815260206004820152601a60248201527f4d6f64656c206e616d652063616e6e6f7420626520656d70747900000000000060448201526064016103d9565b8561080e5760405162461bcd60e51b815260206004820152602260248201527f496e697469616c20706172616d65746572732063616e6e6f7420626520656d70604482015261747960f01b60648201526084016103d9565b600554881015801561082257506006548811155b61086e5760405162461bcd60e51b815260206004820181905260248201527f496e697469616c2066726175642073636f7265206f7574206f662072616e676560448201526064016103d9565b336000908152600160208181526040808420805460ff191690931790925560029052902061089d848683611cba565b506040516bffffffffffffffffffffffff193360601b16602082015260348101899052605481018690524260748201526000906094016040516020818303038152906040528051906020012090506040518060e001604052808a81526020018989808060200260200160405190810160405280939291908181526020018383602002808284376000920191909152505050908252504260208083019190915233604080840191909152606083018a90528051601f8901839004830281018301909152878152608090920191908890889081908401838280828437600092019190915250505090825250604080516020601f870181900481028201810190925285815291810191908690869081908401838280828437600092018290525093909452505083815260208181526040909120835181558382015180519193506109eb926001850192910190611773565b506040820151600282015560608201516003820180546001600160a01b0319166001600160a01b039092169190911790556080820151600482015560a08201516005820190610a3a9082611d7b565b5060c08201516006820190610a4f9082611d7b565b5050336000818152600360209081526040808320805460018101825590845291909220018490555190915082907fad55df3ec334bcf1692dbc79f6724090b3cf7b7ca1f932229960cdd47dc5c28f90610aab908d815260200190565b60405180910390a3336001600160a01b03167f3fcedc732c565d5e674a3c727e513fa7fc0383e10d330d012a024816d5b2e5868686604051610aee929190611e3b565b60405180910390a2505050505050505050565b60006020819052908152604090208054600282015460038301546004840154600585018054949593946001600160a01b03909316939192610b4190611c1b565b80601f0160208091040260200160405190810160405280929190818152602001828054610b6d90611c1b565b8015610bba5780601f10610b8f57610100808354040283529160200191610bba565b820191906000526020600020905b815481529060010190602001808311610b9d57829003601f168201915b505050505090806006018054610bcf90611c1b565b80601f0160208091040260200160405190810160405280929190818152602001828054610bfb90611c1b565b8015610c485780601f10610c1d57610100808354040283529160200191610c48565b820191906000526020600020905b815481529060010190602001808311610c2b57829003601f168201915b5050505050905086565b3360009081526001602052604081205460ff16610ca85760405162461bcd60e51b8152602060048201526014602482015273135bd9195b081b9bdd08185d5d1a1bdc9a5e995960621b60448201526064016103d9565b600454600160a01b900460ff1615610cf75760405162461bcd60e51b815260206004820152601260248201527110dbdb9d1c9858dd081a5cc81c185d5cd95960721b60448201526064016103d9565b86610d445760405162461bcd60e51b815260206004820152601a60248201527f506172616d65746572732063616e6e6f7420626520656d70747900000000000060448201526064016103d9565b6005548910158015610d5857506006548911155b610da45760405162461bcd60e51b815260206004820152601860248201527f46726175642073636f7265206f7574206f662072616e6765000000000000000060448201526064016103d9565b600754891015610e015760405162461bcd60e51b815260206004820152602260248201527f46726175642073636f726520697320746f6f206c6f7720746f207472616e736660448201526132b960f11b60648201526084016103d9565b6040516bffffffffffffffffffffffff193360601b166020820152603481018a9052605481018790524260748201526000906094016040516020818303038152906040528051906020012090506040518060e001604052808b81526020018a8a808060200260200160405190810160405280939291908181526020018383602002808284376000920191909152505050908252504260208083019190915233604080840191909152606083018b90528051601f8a01839004830281018301909152888152608090920191908990899081908401838280828437600092019190915250505090825250604080516020601f88018190048102820181019092528681529181019190879087908190840183828082843760009201829052509390945250508381526020818152604090912083518155838201518051919350610f4e926001850192910190611773565b506040820151600282015560608201516003820180546001600160a01b0319166001600160a01b039092169190911790556080820151600482015560a08201516005820190610f9d9082611d7b565b5060c08201516006820190610fb29082611d7b565b5050336000818152600360209081526040808320805460018101825590845291909220018490555190915082907fad55df3ec334bcf1692dbc79f6724090b3cf7b7ca1f932229960cdd47dc5c28f9061100e908e815260200190565b60405180910390a39998505050505050505050565b6001600160a01b03811660009081526003602090815260409182902080548351818402810184019094528084526060939283018282801561108357602002820191906000526020600020905b81548152602001906001019080831161106f575b50505050509050919050565b6004546001600160a01b031633146110b95760405162461bcd60e51b81526004016103d990611b9d565b6001600160a01b03831660009081526001602052604090205460ff16156111225760405162461bcd60e51b815260206004820152601b60248201527f4d6f64656c20697320616c726561647920617574686f72697a6564000000000060448201526064016103d9565b6001600160a01b0383166000908152600160208181526040808420805460ff191690931790925560029052902061115a828483611cba565b50826001600160a01b03167f3fcedc732c565d5e674a3c727e513fa7fc0383e10d330d012a024816d5b2e5868383604051611196929190611e3b565b60405180910390a2505050565b600260205260009081526040902080546111bc90611c1b565b80601f01602080910402602001604051908101604052809291908181526020018280546111e890611c1b565b80156112355780601f1061120a57610100808354040283529160200191611235565b820191906000526020600020905b81548152906001019060200180831161121857829003601f168201915b505050505081565b336000908152600160205260408120546060908290819081908490819060ff166112a05760405162461bcd60e51b8152602060048201526014602482015273135bd9195b081b9bdd08185d5d1a1bdc9a5e995960621b60448201526064016103d9565b600088815260208190526040902060028101546112ff5760405162461bcd60e51b815260206004820152601760248201527f5472616e7366657220646f6573206e6f7420657869737400000000000000000060448201526064016103d9565b8054600282015460038301546004840154600185018054604080516020808402820181019092528281529295946001600160a01b03169392600589019260068a019288919083018282801561137357602002820191906000526020600020905b81548152602001906001019080831161135f575b5050505050955081805461138690611c1b565b80601f01602080910402602001604051908101604052809291908181526020018280546113b290611c1b565b80156113ff5780601f106113d4576101008083540402835291602001916113ff565b820191906000526020600020905b8154815290600101906020018083116113e257829003601f168201915b5050505050915080805461141290611c1b565b80601f016020809104026020016040519081016040528092919081815260200182805461143e90611c1b565b801561148b5780601f106114605761010080835404028352916020019161148b565b820191906000526020600020905b81548152906001019060200180831161146e57829003601f168201915b50505050509050975097509750975097509750975050919395979092949650565b6004546001600160a01b031633146114d65760405162461bcd60e51b81526004016103d990611b9d565b6001600160a01b03831660009081526002602052604090206114f9828483611cba565b50826001600160a01b03167fcfaad46abf8c88263f170e5fcec628adcd0c63adac97b9e5559dcedd47249c7f8383604051611196929190611e3b565b6001600160a01b03811660009081526001602090815260408083205460029092528220805460609260ff169190819061156d90611c1b565b80601f016020809104026020016040519081016040528092919081815260200182805461159990611c1b565b80156115e65780601f106115bb576101008083540402835291602001916115e6565b820191906000526020600020905b8154815290600101906020018083116115c957829003601f168201915b5050505050905091509150915091565b6001600160a01b038116600090815260026020526040902080546060919061161d90611c1b565b80601f016020809104026020016040519081016040528092919081815260200182805461164990611c1b565b80156110835780601f1061166b57610100808354040283529160200191611083565b820191906000526020600020905b8154815290600101906020018083116116795750939695505050505050565b6004546001600160a01b031633146116c25760405162461bcd60e51b81526004016103d990611b9d565b6001600160a01b03811660009081526001602052604090205460ff1661172a5760405162461bcd60e51b815260206004820152601760248201527f4d6f64656c206973206e6f7420617574686f72697a656400000000000000000060448201526064016103d9565b6001600160a01b038116600081815260016020526040808220805460ff19169055517f455668f485832bd68d0a85ac764774b430aefffc557fd752e8e52f8e639e6e0f9190a250565b8280548282559060005260206000209081019282156117ae579160200282015b828111156117ae578251825591602001919060010190611793565b506117ba9291506117be565b5090565b5b808211156117ba57600081556001016117bf565b80356001600160a01b03811681146117ea57600080fd5b919050565b60006020828403121561180157600080fd5b61180a826117d3565b9392505050565b60006020828403121561182357600080fd5b8135801515811461180a57600080fd5b6000815180845260005b818110156118595760208185018101518683018201520161183d565b506000602082860101526020601f19601f83011685010191505092915050565b84815283602082015282604082015260806060820152600061189e6080830184611833565b9695505050505050565b600080604083850312156118bb57600080fd5b50508035926020909101359150565b60008083601f8401126118dc57600080fd5b50813567ffffffffffffffff8111156118f457600080fd5b60208301915083602082850101111561190c57600080fd5b9250929050565b60008060008060008060008060a0898b03121561192f57600080fd5b88359750602089013567ffffffffffffffff8082111561194e57600080fd5b818b0191508b601f83011261196257600080fd5b81358181111561197157600080fd5b8c60208260051b850101111561198657600080fd5b6020830199508098505060408b0135965060608b01359150808211156119ab57600080fd5b6119b78c838d016118ca565b909650945060808b01359150808211156119d057600080fd5b506119dd8b828c016118ca565b999c989b5096995094979396929594505050565b600060208284031215611a0357600080fd5b5035919050565b86815285602082015260018060a01b038516604082015283606082015260c060808201526000611a3d60c0830185611833565b82810360a0840152611a4f8185611833565b9998505050505050505050565b600081518084526020808501945080840160005b83811015611a8c57815187529582019590820190600101611a70565b509495945050505050565b60208152600061180a6020830184611a5c565b600080600060408486031215611abf57600080fd5b611ac8846117d3565b9250602084013567ffffffffffffffff811115611ae457600080fd5b611af0868287016118ca565b9497909650939450505050565b60208152600061180a6020830184611833565b87815260e060208201526000611b2960e0830189611a5c565b604083018890526001600160a01b03871660608401526080830186905282810360a0840152611b588186611833565b905082810360c0840152611b6c8185611833565b9a9950505050505050505050565b8215158152604060208201526000611b956040830184611833565b949350505050565b60208082526021908201527f4f6e6c79206f776e65722063616e2063616c6c20746869732066756e6374696f6040820152603760f91b606082015260800190565b81810381811115611bff57634e487b7160e01b600052601160045260246000fd5b92915050565b634e487b7160e01b600052603260045260246000fd5b600181811c90821680611c2f57607f821691505b602082108103611c4f57634e487b7160e01b600052602260045260246000fd5b50919050565b634e487b7160e01b600052604160045260246000fd5b601f821115611cb557600081815260208120601f850160051c81016020861015611c925750805b601f850160051c820191505b81811015611cb157828155600101611c9e565b5050505b505050565b67ffffffffffffffff831115611cd257611cd2611c55565b611ce683611ce08354611c1b565b83611c6b565b6000601f841160018114611d1a5760008515611d025750838201355b600019600387901b1c1916600186901b178355611d74565b600083815260209020601f19861690835b82811015611d4b5786850135825560209485019460019092019101611d2b565b5086821015611d685760001960f88860031b161c19848701351681555b505060018560011b0183555b5050505050565b815167ffffffffffffffff811115611d9557611d95611c55565b611da981611da38454611c1b565b84611c6b565b602080601f831160018114611dde5760008415611dc65750858301515b600019600386901b1c1916600185901b178555611cb1565b600085815260208120601f198616915b82811015611e0d57888601518255948401946001909101908401611dee565b5085821015611e2b5787850151600019600388901b60f8161c191681555b5050505050600190811b01905550565b60208152816020820152818360408301376000818301604090810191909152601f909201601f1916010191905056fea2646970667358221220f1f49b880e0a4289ee0003be2a887e7060e22f2095a641c57969a0a67e2e769564736f6c63430008110033",
  "linkReferences": {},
  "deployedLinkReferences": {}
}